{
  "contractName": "PunchClock",
  "abi": [
    {
      "inputs": [
        {
          "internalType": "uint256",
          "name": "userId",
          "type": "uint256"
        },
        {
          "internalType": "uint256",
          "name": "companyId",
          "type": "uint256"
        }
      ],
      "name": "punchIn",
      "outputs": [
        {
          "internalType": "uint256",
          "name": "",
          "type": "uint256"
        }
      ],
      "stateMutability": "nonpayable",
      "type": "function"
    },
    {
      "inputs": [
        {
          "internalType": "uint256",
          "name": "userId",
          "type": "uint256"
        },
        {
          "internalType": "uint256",
          "name": "companyId",
          "type": "uint256"
        }
      ],
      "name": "punchOut",
      "outputs": [
        {
          "internalType": "uint256",
          "name": "",
          "type": "uint256"
        }
      ],
      "stateMutability": "nonpayable",
      "type": "function"
    },
    {
      "inputs": [
        {
          "internalType": "uint256",
          "name": "userId",
          "type": "uint256"
        }
      ],
      "name": "getPunches",
      "outputs": [
        {
          "components": [
            {
              "internalType": "uint256",
              "name": "userId",
              "type": "uint256"
            },
            {
              "internalType": "uint256",
              "name": "companyId",
              "type": "uint256"
            },
            {
              "internalType": "uint256",
              "name": "datetime",
              "type": "uint256"
            },
            {
              "internalType": "enum PunchClock.PunchTypes",
              "name": "punchType",
              "type": "uint8"
            }
          ],
          "internalType": "struct PunchClock.Punch[]",
          "name": "",
          "type": "tuple[]"
        }
      ],
      "stateMutability": "nonpayable",
      "type": "function"
    }
  ],
  "bytecode": "0x608060405234801561001057600080fd5b506106c0806100206000396000f3fe608060405234801561001057600080fd5b50600436106100415760003560e01c806310ff4c43146100465780636da8643e14610076578063965b2a98146100a6575b600080fd5b610060600480360381019061005b91906103a0565b6100d6565b60405161006d91906103ef565b60405180910390f35b610090600480360381019061008b91906103a0565b610194565b60405161009d91906103ef565b60405180910390f35b6100c060048036038101906100bb919061040a565b610253565b6040516100cd91906105c1565b60405180910390f35b600080604051806080016040528085815260200184815260200142815260200160018081111561010957610108610472565b5b8152509050600081908060018154018082558091505060019003906000526020600020906004020160009091909190915060008201518160000155602082015181600101556040820151816002015560608201518160030160006101000a81548160ff0219169083600181111561018357610182610472565b5b021790555050504291505092915050565b6000806040518060800160405280858152602001848152602001428152602001600060018111156101c8576101c7610472565b5b8152509050600081908060018154018082558091505060019003906000526020600020906004020160009091909190915060008201518160000155602082015181600101556040820151816002015560608201518160030160006101000a81548160ff0219169083600181111561024257610241610472565b5b021790555050504291505092915050565b6060806000805b60008054905081101561035a57846000828154811061027c5761027b6105e3565b5b906000526020600020906004020160000154141561034757600081815481106102a8576102a76105e3565b5b90600052602060002090600402016040518060800160405290816000820154815260200160018201548152602001600282015481526020016003820160009054906101000a900460ff16600181111561030457610303610472565b5b600181111561031657610315610472565b5b8152505083838151811061032d5761032c6105e3565b5b6020026020010181905250818061034390610641565b9250505b808061035290610641565b91505061025a565b508192505050919050565b600080fd5b6000819050919050565b61037d8161036a565b811461038857600080fd5b50565b60008135905061039a81610374565b92915050565b600080604083850312156103b7576103b6610365565b5b60006103c58582860161038b565b92505060206103d68582860161038b565b9150509250929050565b6103e98161036a565b82525050565b600060208201905061040460008301846103e0565b92915050565b6000602082840312156104205761041f610365565b5b600061042e8482850161038b565b91505092915050565b600081519050919050565b600082825260208201905092915050565b6000819050602082019050919050565b61046c8161036a565b82525050565b7f4e487b7100000000000000000000000000000000000000000000000000000000600052602160045260246000fd5b600281106104b2576104b1610472565b5b50565b60008190506104c3826104a1565b919050565b60006104d3826104b5565b9050919050565b6104e3816104c8565b82525050565b6080820160008201516104ff6000850182610463565b5060208201516105126020850182610463565b5060408201516105256040850182610463565b50606082015161053860608501826104da565b50505050565b600061054a83836104e9565b60808301905092915050565b6000602082019050919050565b600061056e82610437565b6105788185610442565b935061058383610453565b8060005b838110156105b457815161059b888261053e565b97506105a683610556565b925050600181019050610587565b5085935050505092915050565b600060208201905081810360008301526105db8184610563565b905092915050565b7f4e487b7100000000000000000000000000000000000000000000000000000000600052603260045260246000fd5b7f4e487b7100000000000000000000000000000000000000000000000000000000600052601160045260246000fd5b600061064c8261036a565b91507fffffffffffffffffffffffffffffffffffffffffffffffffffffffffffffffff82141561067f5761067e610612565b5b60018201905091905056fea264697066735822122023c23232416318bf9564366f361fd0ea76c3bdb8e6085fcefd10391758ce4ebd64736f6c63430008090033",
  "immutableReferences": {},
  "source": "// SPDX-License-Identifier: MIT\r\npragma solidity ^0.8.0;\r\n\r\n\r\ncontract PunchClock {\r\n\r\n    enum PunchTypes {\r\n      In,\r\n      Out\r\n    }\r\n\r\n    struct Punch {\r\n      uint userId;\r\n      uint companyId;\r\n      uint datetime;\r\n      PunchTypes punchType;\r\n    }\r\n\r\n    Punch[] allPunches;\r\n\r\n    function punchIn(uint userId, uint companyId) public returns (uint256)\r\n    {\r\n        Punch memory punch = Punch(userId, companyId, block.timestamp, PunchTypes.In);\r\n        allPunches.push(punch);\r\n\r\n        return block.timestamp;\r\n    }\r\n\r\n    function punchOut(uint userId, uint companyId) public returns (uint256)\r\n    {\r\n        Punch memory punch = Punch(userId, companyId, block.timestamp, PunchTypes.Out);\r\n        allPunches.push(punch);\r\n\r\n        return block.timestamp;\r\n    }\r\n\r\n    function getPunches(uint userId) public returns (Punch[] memory)\r\n    {\r\n        Punch[] memory userPunches;\r\n        uint totalPunches = 0;\r\n\r\n        for (uint i = 0; i < allPunches.length; i++) {\r\n          if (allPunches[i].userId == userId) {\r\n            userPunches[totalPunches] = allPunches[i];\r\n            totalPunches++;\r\n          }\r\n        }\r\n        return userPunches;\r\n    }\r\n}",
  "sourcePath": "C:\\Users\\cburgdorff\\source\\repos\\AutoContracts\\contracts\\PunchClock.sol",
  "compiler": {
    "name": "solc",
    "version": "0.8.9+commit.e5eed63a.Emscripten.clang"
  },
  "schemaVersion": "3.4.3",
  "updatedAt": "2021-11-15T09:46:49.015Z",
  "devdoc": {
    "kind": "dev",
    "methods": {},
    "version": 1
  },
  "userdoc": {
    "kind": "user",
    "methods": {},
    "version": 1
  }
}